{
  "address": "0x69a5e7fC44aFe18A6B0e72d977c58625b3258A10",
  "abi": [
    {
      "inputs": [
        {
          "internalType": "contract ENS",
          "name": "_ens",
          "type": "address"
        },
        {
          "internalType": "uint256",
          "name": "_startDate",
          "type": "uint256"
        }
      ],
      "stateMutability": "nonpayable",
      "type": "constructor"
    },
    {
      "anonymous": false,
      "inputs": [
        {
          "indexed": true,
          "internalType": "bytes32",
          "name": "hash",
          "type": "bytes32"
        },
        {
          "indexed": false,
          "internalType": "uint256",
          "name": "registrationDate",
          "type": "uint256"
        }
      ],
      "name": "AuctionStarted",
      "type": "event"
    },
    {
      "anonymous": false,
      "inputs": [
        {
          "indexed": true,
          "internalType": "bytes32",
          "name": "hash",
          "type": "bytes32"
        },
        {
          "indexed": true,
          "internalType": "address",
          "name": "owner",
          "type": "address"
        },
        {
          "indexed": false,
          "internalType": "uint256",
          "name": "value",
          "type": "uint256"
        },
        {
          "indexed": false,
          "internalType": "uint8",
          "name": "status",
          "type": "uint8"
        }
      ],
      "name": "BidRevealed",
      "type": "event"
    },
    {
      "anonymous": false,
      "inputs": [
        {
          "indexed": true,
          "internalType": "bytes32",
          "name": "hash",
          "type": "bytes32"
        },
        {
          "indexed": true,
          "internalType": "string",
          "name": "name",
          "type": "string"
        },
        {
          "indexed": false,
          "internalType": "uint256",
          "name": "value",
          "type": "uint256"
        },
        {
          "indexed": false,
          "internalType": "uint256",
          "name": "registrationDate",
          "type": "uint256"
        }
      ],
      "name": "HashInvalidated",
      "type": "event"
    },
    {
      "anonymous": false,
      "inputs": [
        {
          "indexed": true,
          "internalType": "bytes32",
          "name": "hash",
          "type": "bytes32"
        },
        {
          "indexed": true,
          "internalType": "address",
          "name": "owner",
          "type": "address"
        },
        {
          "indexed": false,
          "internalType": "uint256",
          "name": "value",
          "type": "uint256"
        },
        {
          "indexed": false,
          "internalType": "uint256",
          "name": "registrationDate",
          "type": "uint256"
        }
      ],
      "name": "HashRegistered",
      "type": "event"
    },
    {
      "anonymous": false,
      "inputs": [
        {
          "indexed": true,
          "internalType": "bytes32",
          "name": "hash",
          "type": "bytes32"
        },
        {
          "indexed": false,
          "internalType": "uint256",
          "name": "value",
          "type": "uint256"
        }
      ],
      "name": "HashReleased",
      "type": "event"
    },
    {
      "anonymous": false,
      "inputs": [
        {
          "indexed": true,
          "internalType": "bytes32",
          "name": "hash",
          "type": "bytes32"
        },
        {
          "indexed": true,
          "internalType": "address",
          "name": "bidder",
          "type": "address"
        },
        {
          "indexed": false,
          "internalType": "uint256",
          "name": "deposit",
          "type": "uint256"
        }
      ],
      "name": "NewBid",
      "type": "event"
    },
    {
      "inputs": [
        {
          "internalType": "bytes32",
          "name": "hash",
          "type": "bytes32"
        },
        {
          "internalType": "contract Deed",
          "name": "deed",
          "type": "address"
        },
        {
          "internalType": "uint256",
          "name": "registrationDate",
          "type": "uint256"
        }
      ],
      "name": "acceptRegistrarTransfer",
      "outputs": [],
      "stateMutability": "nonpayable",
      "type": "function"
    },
    {
      "inputs": [
        {
          "internalType": "address",
          "name": "bidder",
          "type": "address"
        },
        {
          "internalType": "bytes32",
          "name": "seal",
          "type": "bytes32"
        }
      ],
      "name": "cancelBid",
      "outputs": [],
      "stateMutability": "nonpayable",
      "type": "function"
    },
    {
      "inputs": [],
      "name": "ens",
      "outputs": [
        {
          "internalType": "contract ENS",
          "name": "",
          "type": "address"
        }
      ],
      "stateMutability": "view",
      "type": "function"
    },
    {
      "inputs": [
        {
          "internalType": "bytes32",
          "name": "_hash",
          "type": "bytes32"
        }
      ],
      "name": "entries",
      "outputs": [
        {
          "internalType": "enum Registrar.Mode",
          "name": "",
          "type": "uint8"
        },
        {
          "internalType": "address",
          "name": "",
          "type": "address"
        },
        {
          "internalType": "uint256",
          "name": "",
          "type": "uint256"
        },
        {
          "internalType": "uint256",
          "name": "",
          "type": "uint256"
        },
        {
          "internalType": "uint256",
          "name": "",
          "type": "uint256"
        }
      ],
      "stateMutability": "view",
      "type": "function"
    },
    {
      "inputs": [
        {
          "internalType": "bytes32[]",
          "name": "labels",
          "type": "bytes32[]"
        }
      ],
      "name": "eraseNode",
      "outputs": [],
      "stateMutability": "nonpayable",
      "type": "function"
    },
    {
      "inputs": [
        {
          "internalType": "bytes32",
          "name": "_hash",
          "type": "bytes32"
        }
      ],
      "name": "finalizeAuction",
      "outputs": [],
      "stateMutability": "nonpayable",
      "type": "function"
    },
    {
      "inputs": [
        {
          "internalType": "bytes32",
          "name": "_hash",
          "type": "bytes32"
        }
      ],
      "name": "getAllowedTime",
      "outputs": [
        {
          "internalType": "uint256",
          "name": "",
          "type": "uint256"
        }
      ],
      "stateMutability": "view",
      "type": "function"
    },
    {
      "inputs": [
        {
          "internalType": "string",
          "name": "unhashedName",
          "type": "string"
        }
      ],
      "name": "invalidateName",
      "outputs": [],
      "stateMutability": "nonpayable",
      "type": "function"
    },
    {
      "inputs": [
        {
          "internalType": "bytes32",
          "name": "_hash",
          "type": "bytes32"
        },
        {
          "internalType": "uint256",
          "name": "_timestamp",
          "type": "uint256"
        }
      ],
      "name": "isAllowed",
      "outputs": [
        {
          "internalType": "bool",
          "name": "allowed",
          "type": "bool"
        }
      ],
      "stateMutability": "view",
      "type": "function"
    },
    {
      "inputs": [],
      "name": "launchLength",
      "outputs": [
        {
          "internalType": "uint32",
          "name": "",
          "type": "uint32"
        }
      ],
      "stateMutability": "view",
      "type": "function"
    },
    {
      "inputs": [
        {
          "internalType": "bytes32",
          "name": "sealedBid",
          "type": "bytes32"
        }
      ],
      "name": "newBid",
      "outputs": [],
      "stateMutability": "payable",
      "type": "function"
    },
    {
      "inputs": [],
      "name": "registryStarted",
      "outputs": [
        {
          "internalType": "uint256",
          "name": "",
          "type": "uint256"
        }
      ],
      "stateMutability": "view",
      "type": "function"
    },
    {
      "inputs": [
        {
          "internalType": "bytes32",
          "name": "_hash",
          "type": "bytes32"
        }
      ],
      "name": "releaseDeed",
      "outputs": [],
      "stateMutability": "nonpayable",
      "type": "function"
    },
    {
      "inputs": [
        {
          "internalType": "address",
          "name": "",
          "type": "address"
        },
        {
          "internalType": "bytes32",
          "name": "",
          "type": "bytes32"
        }
      ],
      "name": "sealedBids",
      "outputs": [
        {
          "internalType": "contract Deed",
          "name": "",
          "type": "address"
        }
      ],
      "stateMutability": "view",
      "type": "function"
    },
    {
      "inputs": [
        {
          "internalType": "bytes32",
          "name": "hash",
          "type": "bytes32"
        },
        {
          "internalType": "address",
          "name": "owner",
          "type": "address"
        },
        {
          "internalType": "uint256",
          "name": "value",
          "type": "uint256"
        },
        {
          "internalType": "bytes32",
          "name": "salt",
          "type": "bytes32"
        }
      ],
      "name": "shaBid",
      "outputs": [
        {
          "internalType": "bytes32",
          "name": "",
          "type": "bytes32"
        }
      ],
      "stateMutability": "pure",
      "type": "function"
    },
    {
      "inputs": [
        {
          "internalType": "bytes32",
          "name": "_hash",
          "type": "bytes32"
        }
      ],
      "name": "startAuction",
      "outputs": [],
      "stateMutability": "nonpayable",
      "type": "function"
    },
    {
      "inputs": [
        {
          "internalType": "bytes32[]",
          "name": "_hashes",
          "type": "bytes32[]"
        }
      ],
      "name": "startAuctions",
      "outputs": [],
      "stateMutability": "nonpayable",
      "type": "function"
    },
    {
      "inputs": [
        {
          "internalType": "bytes32[]",
          "name": "hashes",
          "type": "bytes32[]"
        },
        {
          "internalType": "bytes32",
          "name": "sealedBid",
          "type": "bytes32"
        }
      ],
      "name": "startAuctionsAndBid",
      "outputs": [],
      "stateMutability": "payable",
      "type": "function"
    },
    {
      "inputs": [
        {
          "internalType": "bytes32",
          "name": "_hash",
          "type": "bytes32"
        }
      ],
      "name": "state",
      "outputs": [
        {
          "internalType": "enum Registrar.Mode",
          "name": "",
          "type": "uint8"
        }
      ],
      "stateMutability": "view",
      "type": "function"
    },
    {
      "inputs": [
        {
          "internalType": "bytes32",
          "name": "_hash",
          "type": "bytes32"
        },
        {
          "internalType": "address payable",
          "name": "newOwner",
          "type": "address"
        }
      ],
      "name": "transfer",
      "outputs": [],
      "stateMutability": "nonpayable",
      "type": "function"
    },
    {
      "inputs": [
        {
          "internalType": "bytes32",
          "name": "_hash",
          "type": "bytes32"
        }
      ],
      "name": "transferRegistrars",
      "outputs": [],
      "stateMutability": "nonpayable",
      "type": "function"
    },
    {
      "inputs": [
        {
          "internalType": "bytes32",
          "name": "_hash",
          "type": "bytes32"
        },
        {
          "internalType": "uint256",
          "name": "_value",
          "type": "uint256"
        },
        {
          "internalType": "bytes32",
          "name": "_salt",
          "type": "bytes32"
        }
      ],
      "name": "unsealBid",
      "outputs": [],
      "stateMutability": "nonpayable",
      "type": "function"
    }
  ],
  "transactionHash": "0xce42fdb4c5b75022d3797361c39f8b5f5ea4be5116b2cf5831f500d55987ee04",
  "args": [
    "0x57695e53839eEDe57217e4ECEc768e6A02d2c230",
    1639301531
  ],
  "solcInputHash": "1bd792ce2c217ca78bb2f37afe180f16",
  "bytecode": "0x60806040523480156200001157600080fd5b5060405162002e1838038062002e188339810160408190526200003491620000c4565b600080546001600160a01b0319166001600160a01b038416179055806200005c57426200005e565b805b6003556000805460408051633a541bbb60e11b815290516001600160a01b03909216926374a837769260048084019382900301818387803b158015620000a357600080fd5b505af1158015620000b8573d6000803e3d6000fd5b505050505050620000fe565b60008060408385031215620000d7578182fd5b82516001600160a01b0381168114620000ee578283fd5b6020939093015192949293505050565b612d0a806200010e6000396000f3fe608060405260043610620001935760003560e01c806379ce9fac11620000db578063ce92dced1162000089578063ea9e107a1162000060578063ea9e107a1462000521578063ede8acdb1462000545578063febefd61146200056a57600080fd5b8063ce92dced14620004c0578063de10f04b14620004d7578063e27fe50f14620004fc57600080fd5b8063983b94fb11620000be578063983b94fb14620004545780639c67f06f1462000479578063ae1a0b0c146200049157600080fd5b806379ce9fac14620003f957806393503337146200041e57600080fd5b8063267b692211620001455780635ddae283116200011c5780635ddae283146200035b5780635e431709146200038057806361d585da14620003c557600080fd5b8063267b692214620002c35780633f15457f14620002fb57806347872b42146200033657600080fd5b806315f73331116200017a57806315f7333114620001f757806322ec1244146200021c5780632525f5c1146200029e57600080fd5b80630230a07c146200019857806313c89a8f14620001bf575b600080fd5b348015620001a557600080fd5b50620001bd620001b7366004620022cd565b62000581565b005b348015620001cc57600080fd5b50620001e4620001de366004620022cd565b620007aa565b6040519081526020015b60405180910390f35b3480156200020457600080fd5b50620001bd62000216366004620023df565b620007d6565b3480156200022957600080fd5b50620001e46200023b36600462002318565b6040805160208082019690965260609490941b7fffffffffffffffffffffffffffffffffffffffff000000000000000000000000168482015260548401929092526074808401919091528151808403909101815260949092019052805191012090565b348015620002ab57600080fd5b50620001bd620002bd3660046200220d565b62000b4d565b348015620002d057600080fd5b50620002e8620002e2366004620022cd565b62000d98565b604051620001ee959493929190620024ad565b3480156200030857600080fd5b506000546200031d906001600160a01b031681565b6040516001600160a01b039091168152602001620001ee565b3480156200034357600080fd5b50620001bd62000355366004620023b3565b62000de6565b3480156200036857600080fd5b50620001bd6200037a366004620022cd565b620014eb565b3480156200038d57600080fd5b506200031d6200039f3660046200220d565b60026020908152600092835260408084209091529082529020546001600160a01b031681565b348015620003d257600080fd5b50620003ea620003e4366004620022cd565b620015e9565b604051620001ee91906200249d565b3480156200040657600080fd5b50620001bd62000418366004620022e6565b62001669565b3480156200042b57600080fd5b50620004436200043d36600462002391565b6200187f565b6040519015158152602001620001ee565b3480156200046157600080fd5b50620001bd62000473366004620022cd565b62001895565b3480156200048657600080fd5b50620001e460035481565b3480156200049e57600080fd5b50620004aa6249d40081565b60405163ffffffff9091168152602001620001ee565b620001bd620004d1366004620022cd565b62001c4d565b348015620004e457600080fd5b50620001bd620004f63660046200223b565b62001c5b565b3480156200050957600080fd5b50620001bd6200051b3660046200223b565b62001cd2565b3480156200052e57600080fd5b50620001bd6200054036600462002357565b505050565b3480156200055257600080fd5b50620001bd62000564366004620022cd565b62001d10565b620001bd6200057b3660046200227f565b62001d1b565b8060026200058f82620015e9565b6005811115620005af57634e487b7160e01b600052602160045260246000fd5b1480156200067157506000818152600160209081526040918290205482517f8da5cb5b00000000000000000000000000000000000000000000000000000000815292516001600160a01b0390911692638da5cb5b926004808301939192829003018186803b1580156200062157600080fd5b505afa15801562000636573d6000803e3d6000fd5b505050506040513d601f19601f820116820180604052508101906200065c9190620021e7565b6001600160a01b0316336001600160a01b0316145b6200067b57600080fd5b600082815260016020819052604090912080549181015490916001600160a01b031690620006ae906301e1338062002535565b421015620006bb57600080fd5b600060028301819055600383015581547fffffffffffffffffffffffff00000000000000000000000000000000000000001682556040517fbbe427710000000000000000000000000000000000000000000000000000000081526103e860048201526001600160a01b0382169063bbe4277190602401600060405180830381600087803b1580156200074c57600080fd5b505af115801562000761573d6000803e3d6000fd5b50505050837f292b79b9246fa2c8e77d3fe195b251f9cb839d7d038e667c069ee7708c631e1683600201546040516200079c91815260200190565b60405180910390a250505050565b60006080620007bf83821c6249d40062002571565b901c600354620007d0919062002535565b92915050565b8181604051602001620007eb929190620024e8565b604080517fffffffffffffffffffffffffffffffffffffffffffffffffffffffffffffffe081840301815291905280516020909101206002806200082f83620015e9565b60058111156200084f57634e487b7160e01b600052602160045260246000fd5b146200085a57600080fd5b60066200089d85858080601f01602080910402602001604051908101604052809392919081815260200183838082843760009201919091525062001d6492505050565b1115620008a957600080fd5b60008484604051602001620008c0929190620024e8565b604080517fffffffffffffffffffffffffffffffffffffffffffffffffffffffffffffffe081840301815291815281516020928301206000818152600190935291208054919250906001600160a01b03161562000ab6576200092e8160020154662386f26fc1000062001e37565b600280830182905582546001600160a01b03169163b0c8097291620009539162002550565b6040517fffffffff0000000000000000000000000000000000000000000000000000000060e084901b168152600481019190915260006024820152604401600060405180830381600087803b158015620009ac57600080fd5b505af1158015620009c1573d6000803e3d6000fd5b505082546040517f13af40350000000000000000000000000000000000000000000000000000000081523360048201526001600160a01b0390911692506313af40359150602401600060405180830381600087803b15801562000a2357600080fd5b505af115801562000a38573d6000803e3d6000fd5b505082546040517fbbe427710000000000000000000000000000000000000000000000000000000081526103e860048201526001600160a01b03909116925063bbe427719150602401600060405180830381600087803b15801562000a9c57600080fd5b505af115801562000ab1573d6000803e3d6000fd5b505050505b858560405162000ac89291906200248d565b604080519182900382206002840154600185015490845260208401529184917f1f9c649fe47e58bb60f4e52f0d90e4c47a526c9f90c5113df842c025970b66ad910160405180910390a3600060028201819055600382015580547fffffffffffffffffffffffff00000000000000000000000000000000000000001690555050505050565b6001600160a01b03808316600090815260026020908152604080832085845290915290205416801580159062000c1c57506206978063ffffffff16816001600160a01b03166305b344106040518163ffffffff1660e01b815260040160206040518083038186803b15801562000bc257600080fd5b505afa15801562000bd7573d6000803e3d6000fd5b505050506040513d601f19601f8201168201806040525081019062000bfd919062002451565b62000c09919062002535565b62000c18906212750062002535565b4210155b62000c2657600080fd5b6040517f13af40350000000000000000000000000000000000000000000000000000000081523360048201526001600160a01b038216906313af403590602401600060405180830381600087803b15801562000c8157600080fd5b505af115801562000c96573d6000803e3d6000fd5b50506040517fbbe42771000000000000000000000000000000000000000000000000000000008152600560048201526001600160a01b038416925063bbe427719150602401600060405180830381600087803b15801562000cf657600080fd5b505af115801562000d0b573d6000803e3d6000fd5b505050506001600160a01b0383166000818152600260209081526040808320868452825280832080547fffffffffffffffffffffffff0000000000000000000000000000000000000000169055805192835260059183019190915284917f7b6c4b278d165a6b33958f8ea5dfb00c8c9d4d0acf1985bef5d10786898bc3e7910160405180910390a3505050565b6000818152600160205260408120819081908190819062000db987620015e9565b815460018301546002840154600390940154929a6001600160a01b03909216995097509195509350915050565b60408051602080820186905233606081901b7fffffffffffffffffffffffffffffffffffffffff00000000000000000000000016838501526054830186905260748084018690528451808503909101815260949093018452825192820192909220600092835260028252838320818452909152919020546001600160a01b03168062000e7157600080fd5b336000908152600260209081526040808320858452825280832080547fffffffffffffffffffffffff00000000000000000000000000000000000000001690558783526001825280832081517f3fa4f245000000000000000000000000000000000000000000000000000000008152915190939262000f5a9289926001600160a01b03881692633fa4f2459260048082019391829003018186803b15801562000f1957600080fd5b505afa15801562000f2e573d6000803e3d6000fd5b505050506040513d601f19601f8201168201806040525081019062000f54919062002451565b62001e52565b6040517fb0c8097200000000000000000000000000000000000000000000000000000000815260048101829052600160248201529091506001600160a01b0384169063b0c8097290604401600060405180830381600087803b15801562000fc057600080fd5b505af115801562000fd5573d6000803e3d6000fd5b50505050600062000fe688620015e9565b905060028160058111156200100b57634e487b7160e01b600052602160045260246000fd5b1415620010cb576040517fbbe42771000000000000000000000000000000000000000000000000000000008152600560048201526001600160a01b0385169063bbe4277190602401600060405180830381600087803b1580156200106e57600080fd5b505af115801562001083573d6000803e3d6000fd5b505060408051858152600160208201523393508b92507f7b6c4b278d165a6b33958f8ea5dfb00c8c9d4d0acf1985bef5d10786898bc3e791015b60405180910390a3620014e1565b6004816005811115620010ee57634e487b7160e01b600052602160045260246000fd5b14620010f957600080fd5b662386f26fc1000082108062001196575060018301546200111f906202a30090620025b1565b846001600160a01b03166305b344106040518163ffffffff1660e01b815260040160206040518083038186803b1580156200115957600080fd5b505afa1580156200116e573d6000803e3d6000fd5b505050506040513d601f19601f8201168201806040525081019062001194919062002451565b115b156200124d576040517fbbe427710000000000000000000000000000000000000000000000000000000081526103e360048201526001600160a01b0385169063bbe4277190602401600060405180830381600087803b158015620011f957600080fd5b505af11580156200120e573d6000803e3d6000fd5b505060408051858152600060208201523393508b92507f7b6c4b278d165a6b33958f8ea5dfb00c8c9d4d0acf1985bef5d10786898bc3e79101620010bd565b8260030154821115620013685782546001600160a01b031615620012e85782546040517fbbe427710000000000000000000000000000000000000000000000000000000081526103e360048201526001600160a01b0390911690819063bbe4277190602401600060405180830381600087803b158015620012cd57600080fd5b505af1158015620012e2573d6000803e3d6000fd5b50505050505b6003830180546002808601919091559083905583547fffffffffffffffffffffffff0000000000000000000000000000000000000000166001600160a01b03861617845560408051848152602081019290925233918a917f7b6c4b278d165a6b33958f8ea5dfb00c8c9d4d0acf1985bef5d10786898bc3e79101620010bd565b82600201548211156200142d57600283018290556040517fbbe427710000000000000000000000000000000000000000000000000000000081526103e360048201526001600160a01b0385169063bbe4277190602401600060405180830381600087803b158015620013d957600080fd5b505af1158015620013ee573d6000803e3d6000fd5b505060408051858152600360208201523393508b92507f7b6c4b278d165a6b33958f8ea5dfb00c8c9d4d0acf1985bef5d10786898bc3e79101620010bd565b6040517fbbe427710000000000000000000000000000000000000000000000000000000081526103e360048201526001600160a01b0385169063bbe4277190602401600060405180830381600087803b1580156200148a57600080fd5b505af11580156200149f573d6000803e3d6000fd5b505060408051858152600460208201523393508b92507f7b6c4b278d165a6b33958f8ea5dfb00c8c9d4d0acf1985bef5d10786898bc3e7910160405180910390a35b5050505050505050565b806002620014f982620015e9565b60058111156200151957634e487b7160e01b600052602160045260246000fd5b148015620015db57506000818152600160209081526040918290205482517f8da5cb5b00000000000000000000000000000000000000000000000000000000815292516001600160a01b0390911692638da5cb5b926004808301939192829003018186803b1580156200158b57600080fd5b505afa158015620015a0573d6000803e3d6000fd5b505050506040513d601f19601f82011682018060405250810190620015c69190620021e7565b6001600160a01b0316336001600160a01b0316145b620015e557600080fd5b5050565b60008181526001602052604081206200160383426200187f565b620016115750600592915050565b80600101544210156200164d57600181015462001633906202a30090620025b1565b421015620016445750600192915050565b50600492915050565b6003810154620016605750600092915050565b50600292915050565b8160026200167782620015e9565b60058111156200169757634e487b7160e01b600052602160045260246000fd5b1480156200175957506000818152600160209081526040918290205482517f8da5cb5b00000000000000000000000000000000000000000000000000000000815292516001600160a01b0390911692638da5cb5b926004808301939192829003018186803b1580156200170957600080fd5b505afa1580156200171e573d6000803e3d6000fd5b505050506040513d601f19601f82011682018060405250810190620017449190620021e7565b6001600160a01b0316336001600160a01b0316145b6200176357600080fd5b6001600160a01b0382166200177757600080fd5b60008381526001602052604090819020805491517f13af40350000000000000000000000000000000000000000000000000000000081526001600160a01b038581166004830152919291909116906313af403590602401600060405180830381600087803b158015620017e957600080fd5b505af1158015620017fe573d6000803e3d6000fd5b50506000546040517f60aa6d34000000000000000000000000000000000000000000000000000000008152600481018890526001600160a01b03878116602483015290911692506360aa6d349150604401600060405180830381600087803b1580156200186a57600080fd5b505af1158015620014e1573d6000803e3d6000fd5b60006200188c83620007aa565b90911192915050565b806002620018a382620015e9565b6005811115620018c357634e487b7160e01b600052602160045260246000fd5b1480156200198557506000818152600160209081526040918290205482517f8da5cb5b00000000000000000000000000000000000000000000000000000000815292516001600160a01b0390911692638da5cb5b926004808301939192829003018186803b1580156200193557600080fd5b505afa1580156200194a573d6000803e3d6000fd5b505050506040513d601f19601f82011682018060405250810190620019709190620021e7565b6001600160a01b0316336001600160a01b0316145b6200198f57600080fd5b60008281526001602052604090206002810154620019b590662386f26fc1000062001e37565b6002820181905581546040517fb0c809720000000000000000000000000000000000000000000000000000000081526004810192909252600160248301526001600160a01b03169063b0c8097290604401600060405180830381600087803b15801562001a2157600080fd5b505af115801562001a36573d6000803e3d6000fd5b50508254604080517f8da5cb5b00000000000000000000000000000000000000000000000000000000815290516001600160a01b039092169350638da5cb5b9250600480820192602092909190829003018186803b15801562001a9857600080fd5b505afa15801562001aad573d6000803e3d6000fd5b505050506040513d601f19601f8201168201806040525081019062001ad39190620021e7565b6001600160a01b0316837f0f0c27adfd84b60b6f456b0e87cdccb1e5fb9603991588d87fa99f5b6b61e6708360020154846001015460405162001b20929190918252602082015260400190565b60405180910390a36000548154604080517f8da5cb5b00000000000000000000000000000000000000000000000000000000815290516001600160a01b03938416936360aa6d34938893911691638da5cb5b91600480820192602092909190829003018186803b15801562001b9457600080fd5b505afa15801562001ba9573d6000803e3d6000fd5b505050506040513d601f19601f8201168201806040525081019062001bcf9190620021e7565b6040517fffffffff0000000000000000000000000000000000000000000000000000000060e085901b16815260048101929092526001600160a01b03166024820152604401600060405180830381600087803b15801562001c2f57600080fd5b505af115801562001c44573d6000803e3d6000fd5b50505050505050565b62001c588162001e65565b50565b8062001c6657600080fd5b600262001ca6838362001c7b600182620025b1565b81811062001c9957634e487b7160e01b600052603260045260246000fd5b90506020020135620015e9565b600581111562001cc657634e487b7160e01b600052602160045260246000fd5b1415620015e557600080fd5b620015e582828080602002602001604051908101604052809392919081815260200183836020028082843760009201919091525062001f7192505050565b62001c588162001fc6565b62001d5983838080602002602001604051908101604052809392919081815260200183836020028082843760009201919091525062001f7192505050565b620005408162001e65565b8051600090600183810191840101825b8183101562001e2f57825160ff16608081101562001da15762001d9960018562002535565b935062001e19565b60e08160ff16101562001dbb5762001d9960028562002535565b60f08160ff16101562001dd55762001d9960038562002535565b60f88160ff16101562001def5762001d9960048562002535565b60fc8160ff16101562001e095762001d9960058562002535565b62001e1660068562002535565b93505b508062001e2681620025cb565b91505062001d74565b949350505050565b60008183111562001e4a575081620007d0565b5080620007d0565b60008183101562001e4a575081620007d0565b3360009081526002602090815260408083208484529091529020546001600160a01b03161562001e9457600080fd5b662386f26fc1000034101562001ea957600080fd5b6000343360405162001ebb906200218c565b6001600160a01b0390911681526020016040518091039082f090508015801562001ee9573d6000803e3d6000fd5b5033600081815260026020908152604080832087845282529182902080547fffffffffffffffffffffffff0000000000000000000000000000000000000000166001600160a01b0386161790559051348152929350909184917fb556ff269c1b6714f432c36431e2041d28436a73b6c3f19c021827bbdc6bfc29910160405180910390a35050565b60005b8151811015620015e55762001fb182828151811062001fa357634e487b7160e01b600052603260045260246000fd5b602002602001015162001fc6565b8062001fbd81620025cb565b91505062001f74565b600354421015801562001feb575060035462001fe790630784ce0062002535565b4211155b62002057576040517f08c379a000000000000000000000000000000000000000000000000000000000815260206004820152601360248201527f72656769737472794f70656e204661696c65640000000000000000000000000060448201526064015b60405180910390fd5b60006200206482620015e9565b905060018160058111156200208957634e487b7160e01b600052602160045260246000fd5b141562002094575050565b6000816005811115620020b757634e487b7160e01b600052602160045260246000fd5b1462002120576040517f08c379a000000000000000000000000000000000000000000000000000000000815260206004820152600b60248201527f6661696c6564204d6f646500000000000000000000000000000000000000000060448201526064016200204e565b60008281526001602052604090206200213d620697804262002535565b60018201819055600060028301819055600383015560405190815283907f87e97e825a1d1fa0c54e1d36c7506c1dea8b1efd451fe68b000cf96f7cf400039060200160405180910390a2505050565b6106a1806200263483390190565b60008083601f840112620021ac578182fd5b50813567ffffffffffffffff811115620021c4578182fd5b6020830191508360208260051b8501011115620021e057600080fd5b9250929050565b600060208284031215620021f9578081fd5b815162002206816200261d565b9392505050565b6000806040838503121562002220578081fd5b82356200222d816200261d565b946020939093013593505050565b600080602083850312156200224e578182fd5b823567ffffffffffffffff81111562002265578283fd5b62002273858286016200219a565b90969095509350505050565b60008060006040848603121562002294578081fd5b833567ffffffffffffffff811115620022ab578182fd5b620022b9868287016200219a565b909790965060209590950135949350505050565b600060208284031215620022df578081fd5b5035919050565b60008060408385031215620022f9578182fd5b8235915060208301356200230d816200261d565b809150509250929050565b600080600080608085870312156200232e578081fd5b84359350602085013562002342816200261d565b93969395505050506040820135916060013590565b6000806000606084860312156200236c578283fd5b83359250602084013562002380816200261d565b929592945050506040919091013590565b60008060408385031215620023a4578182fd5b50508035926020909101359150565b600080600060608486031215620023c8578283fd5b505081359360208301359350604090920135919050565b60008060208385031215620023f2578182fd5b823567ffffffffffffffff808211156200240a578384fd5b818501915085601f8301126200241e578384fd5b8135818111156200242d578485fd5b8660208285010111156200243f578485fd5b60209290920196919550909350505050565b60006020828403121562002463578081fd5b5051919050565b600681106200248957634e487b7160e01b600052602160045260246000fd5b9052565b8183823760009101908152919050565b60208101620007d082846200246a565b60a08101620024bd82886200246a565b6001600160a01b03861660208301528460408301528360608301528260808301529695505050505050565b60208152816020820152818360408301376000818301604090810191909152601f9092017fffffffffffffffffffffffffffffffffffffffffffffffffffffffffffffffe0160101919050565b600082198211156200254b576200254b62002607565b500190565b6000826200256c57634e487b7160e01b81526012600452602481fd5b500490565b6000817fffffffffffffffffffffffffffffffffffffffffffffffffffffffffffffffff0483118215151615620025ac57620025ac62002607565b500290565b600082821015620025c657620025c662002607565b500390565b60007fffffffffffffffffffffffffffffffffffffffffffffffffffffffffffffffff82141562002600576200260062002607565b5060010190565b634e487b7160e01b600052601160045260246000fd5b6001600160a01b038116811462001c5857600080fdfe60806040526040516106a13803806106a183398101604081905261002291610065565b600080546001600160a01b039092166001600160a01b03199283161790556002805490911633179055426003556005805460ff1916600117905534600455610093565b600060208284031215610076578081fd5b81516001600160a01b038116811461008c578182fd5b9392505050565b6105ff806100a26000396000f3fe608060405234801561001057600080fd5b50600436106100a35760003560e01c8063674f220f11610076578063b0c809721161005b578063b0c8097214610140578063bbe4277114610153578063faab9d391461016657600080fd5b8063674f220f146100e35780638da5cb5b1461012257600080fd5b806305b34410146100a85780630b5ab3d5146100be57806313af4035146100c85780633fa4f245146100db575b600080fd5b60005b6040519081526020015b60405180910390f35b6100c6610179565b005b6100c66100d636600461047d565b610183565b6004546100ab565b60015473ffffffffffffffffffffffffffffffffffffffff165b60405173ffffffffffffffffffffffffffffffffffffffff90911681526020016100b5565b60005473ffffffffffffffffffffffffffffffffffffffff166100fd565b6100c661014e3660046104b8565b610251565b6100c66101613660046104a0565b6102eb565b6100c661017436600461047d565b6103c2565b61018161042d565b565b60025473ffffffffffffffffffffffffffffffffffffffff1633146101a757600080fd5b73ffffffffffffffffffffffffffffffffffffffff81166101c757600080fd5b600080546001805473ffffffffffffffffffffffffffffffffffffffff8084167fffffffffffffffffffffffff0000000000000000000000000000000000000000928316179092559091169083169081179091556040519081527fa2ea9883a321a3e97b8266c2b078bfeec6d50c711ed71f874a90d500ae2eaf369060200160405180910390a150565b60025473ffffffffffffffffffffffffffffffffffffffff16331461027557600080fd5b60055460ff1661028457600080fd5b81600454101561029357600080fd5b600482905560005473ffffffffffffffffffffffffffffffffffffffff166108fc6102be8447610561565b6040518115909202916000818181858888f19350505050806102de575080155b6102e757600080fd5b5050565b60025473ffffffffffffffffffffffffffffffffffffffff16331461030f57600080fd5b60055460ff1661031e57600080fd5b600580547fffffffffffffffffffffffffffffffffffffffffffffffffffffffffffffff0016905561dead6108fc6103e84761035a8583610561565b6103649190610524565b61036e91906104eb565b6040518115909202916000818181858888f1935050505061038e57600080fd5b6040517fbb2ce2f51803bba16bc85282b47deeea9a5c6223eabea1077be696b3f265cf1390600090a16103bf61042d565b50565b60025473ffffffffffffffffffffffffffffffffffffffff1633146103e657600080fd5b600280547fffffffffffffffffffffffff00000000000000000000000000000000000000001673ffffffffffffffffffffffffffffffffffffffff92909216919091179055565b60055460ff161561043d57600080fd5b6000805460405173ffffffffffffffffffffffffffffffffffffffff909116914780156108fc02929091818181858888f19350505050156101815761deadff5b60006020828403121561048e578081fd5b8135610499816105a7565b9392505050565b6000602082840312156104b1578081fd5b5035919050565b600080604083850312156104ca578081fd5b82359150602083013580151581146104e0578182fd5b809150509250929050565b60008261051f577f4e487b710000000000000000000000000000000000000000000000000000000081526012600452602481fd5b500490565b6000817fffffffffffffffffffffffffffffffffffffffffffffffffffffffffffffffff048311821515161561055c5761055c610578565b500290565b60008282101561057357610573610578565b500390565b7f4e487b7100000000000000000000000000000000000000000000000000000000600052601160045260246000fd5b73ffffffffffffffffffffffffffffffffffffffff811681146103bf57600080fdfea26469706673582212208a99727db58f74a16e8282a3853a5a14c00f9ffd81a0a7832f329b0b4f09542864736f6c63430008040033a2646970667358221220a803fa29f3c91e963057edfd417b5ce367189da708700e60603b6812e370e7ae64736f6c63430008040033",
  "devdoc": {
    "details": "The registrar handles the auction process for the TLD node.",
    "kind": "dev",
    "methods": {
      "acceptRegistrarTransfer(bytes32,address,uint256)": {
        "details": "Accepts a transfer from a previous registrar; stubbed out here since there      is no previous registrar implementing this interface.",
        "params": {
          "deed": "The Deed object for the name being transferred in.",
          "hash": "The sha3 hash of the label to transfer.",
          "registrationDate": "The date at which the name was originally registered."
        }
      },
      "cancelBid(address,bytes32)": {
        "details": "Cancel a bid",
        "params": {
          "seal": "The value returned by the shaBid function"
        }
      },
      "constructor": {
        "details": "Constructs a new Registrar, with the start Date.",
        "params": {
          "_ens": "The address of the ENS",
          "_startDate": "The start date of the registration process."
        }
      },
      "eraseNode(bytes32[])": {
        "details": "Allows anyone to delete the owner and resolver records for a (subdomain of) a      name that is not currently owned in the registrar. If passing, eg, 'foo.bar.eth',      the owner and resolver fields on 'foo.bar.eth' and 'bar.eth' will all be cleared.",
        "params": {
          "labels": "A series of label hashes identifying the name to zero out, rooted at the        registrar's root. Must contain at least one element. For instance, to zero         'foo.bar.eth' on a registrar that owns '.eth', pass an array containing        [keccak256('foo'), keccak256('bar')]."
        }
      },
      "finalizeAuction(bytes32)": {
        "details": "Finalize an auction after the registration date has passed",
        "params": {
          "_hash": "The hash of the name the auction is for"
        }
      },
      "getAllowedTime(bytes32)": {
        "details": "Returns available date for hash The available time from the `registryStarted` for a hash is proportional to its numeric value.",
        "params": {
          "_hash": "The hash to start an auction on"
        }
      },
      "invalidateName(string)": {
        "details": "Submit a name 6 characters long or less. If it has been registered,      the submitter will earn 50% of the deed value.   We are purposefully handicapping the simplified registrar as a way  to force it into being restructured in a few years.",
        "params": {
          "unhashedName": "An invalid name to search for in the registry."
        }
      },
      "isAllowed(bytes32,uint256)": {
        "details": "Determines if a name is available for registration yet Each name will be assigned a random date in which its auction can be started, from 0 to 8 weeks",
        "params": {
          "_hash": "The hash to start an auction on",
          "_timestamp": "The timestamp to query about"
        }
      },
      "newBid(bytes32)": {
        "details": "Submit a new sealed bid on a desired hash in a blind auction Bids are sent by sending a message to the main contract with a hash and an amount. The hash contains information about the bid, including the bidded hash, the bid amount, and a random salt. Bids are not tied to any one auction until they are revealed. The value of the bid itself can be masqueraded by sending more than the value of your actual bid. This is followed by a 48h reveal period. Bids revealed after this period will be burned and the ether unrecoverable. Since this is an auction, it is expected that most public hashes, like known domains and common dictionary words, will have multiple bidders pushing the price up.",
        "params": {
          "sealedBid": "A sealedBid, created by the shaBid function"
        }
      },
      "releaseDeed(bytes32)": {
        "details": "After some time, or if we're no longer the registrar, the owner can release      the name and get their ether back.",
        "params": {
          "_hash": "The node to release"
        }
      },
      "shaBid(bytes32,address,uint256,bytes32)": {
        "details": "Hash the values required for a secret bid",
        "params": {
          "hash": "The node corresponding to the desired namehash",
          "salt": "A random value to ensure secrecy of the bid",
          "value": "The bid amount"
        },
        "returns": {
          "_0": "The hash of the bid values"
        }
      },
      "startAuction(bytes32)": {
        "details": "Start an auction for an available hash",
        "params": {
          "_hash": "The hash to start an auction on"
        }
      },
      "startAuctions(bytes32[])": {
        "details": "Start multiple auctions for better anonymity Anyone can start an auction by sending an array of hashes that they want to bid for. Arrays are sent so that someone can open up an auction for X dummy hashes when they are only really interested in bidding for one. This will increase the cost for an attacker to simply bid blindly on all new auctions. Dummy auctions that are open but not bid on are closed after a week.",
        "params": {
          "_hashes": "An array of hashes, at least one of which you presumably want to bid on"
        }
      },
      "startAuctionsAndBid(bytes32[],bytes32)": {
        "details": "Start a set of auctions and bid on one of them This method functions identically to calling `startAuctions` followed by `newBid`, but all in one transaction.",
        "params": {
          "hashes": "A list of hashes to start auctions on.",
          "sealedBid": "A sealed bid for one of the auctions."
        }
      },
      "transfer(bytes32,address)": {
        "details": "The owner of a domain may transfer it to someone else at any time.",
        "params": {
          "_hash": "The node to transfer",
          "newOwner": "The address to transfer ownership to"
        }
      },
      "transferRegistrars(bytes32)": {
        "details": "Transfers the deed to the current registrar, if different from this one. Used during the upgrade process to a permanent registrar.",
        "params": {
          "_hash": "The name hash to transfer."
        }
      },
      "unsealBid(bytes32,uint256,bytes32)": {
        "details": "Submit the properties of a bid to reveal them",
        "params": {
          "_hash": "The node in the sealedBid",
          "_salt": "The sale in the sealedBid",
          "_value": "The bid amount in the sealedBid"
        }
      }
    },
    "title": "Registrar",
    "version": 1
  },
  "userdoc": {
    "kind": "user",
    "methods": {
      "state(bytes32)": {
        "notice": "State transitions for names: Open -> Auction (startAuction) Auction -> Reveal Reveal -> Owned Reveal -> Open (if nobody bid) Owned -> Open (releaseDeed or invalidateName)"
      }
    },
    "version": 1
  },
  "storageLayout": {
    "storage": [
      {
        "astId": 13086,
        "contract": "contracts/registry/HashRegistrar.sol:HashRegistrar",
        "label": "ens",
        "offset": 0,
        "slot": "0",
        "type": "t_contract(ENS)12380"
      },
      {
        "astId": 13091,
        "contract": "contracts/registry/HashRegistrar.sol:HashRegistrar",
        "label": "_entries",
        "offset": 0,
        "slot": "1",
        "type": "t_mapping(t_bytes32,t_struct(Entry)13122_storage)"
      },
      {
        "astId": 13098,
        "contract": "contracts/registry/HashRegistrar.sol:HashRegistrar",
        "label": "sealedBids",
        "offset": 0,
        "slot": "2",
        "type": "t_mapping(t_address,t_mapping(t_bytes32,t_contract(Deed)11960))"
      },
      {
        "astId": 13112,
        "contract": "contracts/registry/HashRegistrar.sol:HashRegistrar",
        "label": "registryStarted",
        "offset": 0,
        "slot": "3",
        "type": "t_uint256"
      }
    ],
    "types": {
      "t_address": {
        "encoding": "inplace",
        "label": "address",
        "numberOfBytes": "20"
      },
      "t_bytes32": {
        "encoding": "inplace",
        "label": "bytes32",
        "numberOfBytes": "32"
      },
      "t_contract(Deed)11960": {
        "encoding": "inplace",
        "label": "contract Deed",
        "numberOfBytes": "20"
      },
      "t_contract(ENS)12380": {
        "encoding": "inplace",
        "label": "contract ENS",
        "numberOfBytes": "20"
      },
      "t_mapping(t_address,t_mapping(t_bytes32,t_contract(Deed)11960))": {
        "encoding": "mapping",
        "key": "t_address",
        "label": "mapping(address => mapping(bytes32 => contract Deed))",
        "numberOfBytes": "32",
        "value": "t_mapping(t_bytes32,t_contract(Deed)11960)"
      },
      "t_mapping(t_bytes32,t_contract(Deed)11960)": {
        "encoding": "mapping",
        "key": "t_bytes32",
        "label": "mapping(bytes32 => contract Deed)",
        "numberOfBytes": "32",
        "value": "t_contract(Deed)11960"
      },
      "t_mapping(t_bytes32,t_struct(Entry)13122_storage)": {
        "encoding": "mapping",
        "key": "t_bytes32",
        "label": "mapping(bytes32 => struct HashRegistrar.Entry)",
        "numberOfBytes": "32",
        "value": "t_struct(Entry)13122_storage"
      },
      "t_struct(Entry)13122_storage": {
        "encoding": "inplace",
        "label": "struct HashRegistrar.Entry",
        "members": [
          {
            "astId": 13115,
            "contract": "contracts/registry/HashRegistrar.sol:HashRegistrar",
            "label": "deed",
            "offset": 0,
            "slot": "0",
            "type": "t_contract(Deed)11960"
          },
          {
            "astId": 13117,
            "contract": "contracts/registry/HashRegistrar.sol:HashRegistrar",
            "label": "registrationDate",
            "offset": 0,
            "slot": "1",
            "type": "t_uint256"
          },
          {
            "astId": 13119,
            "contract": "contracts/registry/HashRegistrar.sol:HashRegistrar",
            "label": "value",
            "offset": 0,
            "slot": "2",
            "type": "t_uint256"
          },
          {
            "astId": 13121,
            "contract": "contracts/registry/HashRegistrar.sol:HashRegistrar",
            "label": "highestBid",
            "offset": 0,
            "slot": "3",
            "type": "t_uint256"
          }
        ],
        "numberOfBytes": "128"
      },
      "t_uint256": {
        "encoding": "inplace",
        "label": "uint256",
        "numberOfBytes": "32"
      }
    }
  }
}